{
  "_format": "hh-sol-artifact-1",
  "contractName": "NftContract",
  "sourceName": "contracts/NftContract.sol",
  "abi": [
    {
      "inputs": [],
      "stateMutability": "nonpayable",
      "type": "constructor"
    },
    {
      "anonymous": false,
      "inputs": [
        {
          "indexed": true,
          "internalType": "address",
          "name": "owner",
          "type": "address"
        },
        {
          "indexed": true,
          "internalType": "address",
          "name": "approved",
          "type": "address"
        },
        {
          "indexed": true,
          "internalType": "uint256",
          "name": "tokenId",
          "type": "uint256"
        }
      ],
      "name": "Approval",
      "type": "event"
    },
    {
      "anonymous": false,
      "inputs": [
        {
          "indexed": true,
          "internalType": "address",
          "name": "owner",
          "type": "address"
        },
        {
          "indexed": true,
          "internalType": "address",
          "name": "operator",
          "type": "address"
        },
        {
          "indexed": false,
          "internalType": "bool",
          "name": "approved",
          "type": "bool"
        }
      ],
      "name": "ApprovalForAll",
      "type": "event"
    },
    {
      "anonymous": false,
      "inputs": [
        {
          "indexed": false,
          "internalType": "uint256",
          "name": "_fromTokenId",
          "type": "uint256"
        },
        {
          "indexed": false,
          "internalType": "uint256",
          "name": "_toTokenId",
          "type": "uint256"
        }
      ],
      "name": "BatchMetadataUpdate",
      "type": "event"
    },
    {
      "anonymous": false,
      "inputs": [
        {
          "indexed": true,
          "internalType": "uint256",
          "name": "tokenId",
          "type": "uint256"
        },
        {
          "indexed": false,
          "internalType": "address payable",
          "name": "seller",
          "type": "address"
        },
        {
          "indexed": false,
          "internalType": "address payable",
          "name": "owner",
          "type": "address"
        },
        {
          "indexed": false,
          "internalType": "uint256",
          "name": "price",
          "type": "uint256"
        },
        {
          "indexed": false,
          "internalType": "bool",
          "name": "sold",
          "type": "bool"
        }
      ],
      "name": "MarketItemCreated",
      "type": "event"
    },
    {
      "anonymous": false,
      "inputs": [
        {
          "indexed": false,
          "internalType": "uint256",
          "name": "_tokenId",
          "type": "uint256"
        }
      ],
      "name": "MetadataUpdate",
      "type": "event"
    },
    {
      "anonymous": false,
      "inputs": [
        {
          "indexed": true,
          "internalType": "address",
          "name": "from",
          "type": "address"
        },
        {
          "indexed": true,
          "internalType": "address",
          "name": "to",
          "type": "address"
        },
        {
          "indexed": true,
          "internalType": "uint256",
          "name": "tokenId",
          "type": "uint256"
        }
      ],
      "name": "Transfer",
      "type": "event"
    },
    {
      "inputs": [
        {
          "internalType": "address",
          "name": "to",
          "type": "address"
        },
        {
          "internalType": "uint256",
          "name": "tokenId",
          "type": "uint256"
        }
      ],
      "name": "approve",
      "outputs": [],
      "stateMutability": "nonpayable",
      "type": "function"
    },
    {
      "inputs": [
        {
          "internalType": "address",
          "name": "owner",
          "type": "address"
        }
      ],
      "name": "balanceOf",
      "outputs": [
        {
          "internalType": "uint256",
          "name": "",
          "type": "uint256"
        }
      ],
      "stateMutability": "view",
      "type": "function"
    },
    {
      "inputs": [
        {
          "internalType": "uint256",
          "name": "tokenId",
          "type": "uint256"
        }
      ],
      "name": "createMarketSale",
      "outputs": [],
      "stateMutability": "payable",
      "type": "function"
    },
    {
      "inputs": [
        {
          "internalType": "string",
          "name": "tokenURI",
          "type": "string"
        },
        {
          "internalType": "uint256",
          "name": "price",
          "type": "uint256"
        }
      ],
      "name": "createToken",
      "outputs": [
        {
          "internalType": "uint256",
          "name": "",
          "type": "uint256"
        }
      ],
      "stateMutability": "payable",
      "type": "function"
    },
    {
      "inputs": [],
      "name": "fetchItemsListed",
      "outputs": [
        {
          "components": [
            {
              "internalType": "uint256",
              "name": "tokenId",
              "type": "uint256"
            },
            {
              "internalType": "address payable",
              "name": "seller",
              "type": "address"
            },
            {
              "internalType": "address payable",
              "name": "owner",
              "type": "address"
            },
            {
              "internalType": "uint256",
              "name": "price",
              "type": "uint256"
            },
            {
              "internalType": "bool",
              "name": "sold",
              "type": "bool"
            }
          ],
          "internalType": "struct NftContract.MarketItem[]",
          "name": "",
          "type": "tuple[]"
        }
      ],
      "stateMutability": "view",
      "type": "function"
    },
    {
      "inputs": [],
      "name": "fetchMarketItems",
      "outputs": [
        {
          "components": [
            {
              "internalType": "uint256",
              "name": "tokenId",
              "type": "uint256"
            },
            {
              "internalType": "address payable",
              "name": "seller",
              "type": "address"
            },
            {
              "internalType": "address payable",
              "name": "owner",
              "type": "address"
            },
            {
              "internalType": "uint256",
              "name": "price",
              "type": "uint256"
            },
            {
              "internalType": "bool",
              "name": "sold",
              "type": "bool"
            }
          ],
          "internalType": "struct NftContract.MarketItem[]",
          "name": "",
          "type": "tuple[]"
        }
      ],
      "stateMutability": "view",
      "type": "function"
    },
    {
      "inputs": [],
      "name": "fetchMyNft",
      "outputs": [
        {
          "components": [
            {
              "internalType": "uint256",
              "name": "tokenId",
              "type": "uint256"
            },
            {
              "internalType": "address payable",
              "name": "seller",
              "type": "address"
            },
            {
              "internalType": "address payable",
              "name": "owner",
              "type": "address"
            },
            {
              "internalType": "uint256",
              "name": "price",
              "type": "uint256"
            },
            {
              "internalType": "bool",
              "name": "sold",
              "type": "bool"
            }
          ],
          "internalType": "struct NftContract.MarketItem[]",
          "name": "",
          "type": "tuple[]"
        }
      ],
      "stateMutability": "view",
      "type": "function"
    },
    {
      "inputs": [
        {
          "internalType": "uint256",
          "name": "tokenId",
          "type": "uint256"
        }
      ],
      "name": "getApproved",
      "outputs": [
        {
          "internalType": "address",
          "name": "",
          "type": "address"
        }
      ],
      "stateMutability": "view",
      "type": "function"
    },
    {
      "inputs": [],
      "name": "getListingPrice",
      "outputs": [
        {
          "internalType": "uint256",
          "name": "",
          "type": "uint256"
        }
      ],
      "stateMutability": "view",
      "type": "function"
    },
    {
      "inputs": [
        {
          "internalType": "uint256",
          "name": "",
          "type": "uint256"
        }
      ],
      "name": "idMarketItem",
      "outputs": [
        {
          "internalType": "uint256",
          "name": "tokenId",
          "type": "uint256"
        },
        {
          "internalType": "address payable",
          "name": "seller",
          "type": "address"
        },
        {
          "internalType": "address payable",
          "name": "owner",
          "type": "address"
        },
        {
          "internalType": "uint256",
          "name": "price",
          "type": "uint256"
        },
        {
          "internalType": "bool",
          "name": "sold",
          "type": "bool"
        }
      ],
      "stateMutability": "view",
      "type": "function"
    },
    {
      "inputs": [
        {
          "internalType": "address",
          "name": "owner",
          "type": "address"
        },
        {
          "internalType": "address",
          "name": "operator",
          "type": "address"
        }
      ],
      "name": "isApprovedForAll",
      "outputs": [
        {
          "internalType": "bool",
          "name": "",
          "type": "bool"
        }
      ],
      "stateMutability": "view",
      "type": "function"
    },
    {
      "inputs": [],
      "name": "name",
      "outputs": [
        {
          "internalType": "string",
          "name": "",
          "type": "string"
        }
      ],
      "stateMutability": "view",
      "type": "function"
    },
    {
      "inputs": [
        {
          "internalType": "uint256",
          "name": "tokenId",
          "type": "uint256"
        }
      ],
      "name": "ownerOf",
      "outputs": [
        {
          "internalType": "address",
          "name": "",
          "type": "address"
        }
      ],
      "stateMutability": "view",
      "type": "function"
    },
    {
      "inputs": [
        {
          "internalType": "uint256",
          "name": "tokenId",
          "type": "uint256"
        },
        {
          "internalType": "uint256",
          "name": "price",
          "type": "uint256"
        }
      ],
      "name": "reSellToken",
      "outputs": [],
      "stateMutability": "payable",
      "type": "function"
    },
    {
      "inputs": [
        {
          "internalType": "address",
          "name": "from",
          "type": "address"
        },
        {
          "internalType": "address",
          "name": "to",
          "type": "address"
        },
        {
          "internalType": "uint256",
          "name": "tokenId",
          "type": "uint256"
        }
      ],
      "name": "safeTransferFrom",
      "outputs": [],
      "stateMutability": "nonpayable",
      "type": "function"
    },
    {
      "inputs": [
        {
          "internalType": "address",
          "name": "from",
          "type": "address"
        },
        {
          "internalType": "address",
          "name": "to",
          "type": "address"
        },
        {
          "internalType": "uint256",
          "name": "tokenId",
          "type": "uint256"
        },
        {
          "internalType": "bytes",
          "name": "data",
          "type": "bytes"
        }
      ],
      "name": "safeTransferFrom",
      "outputs": [],
      "stateMutability": "nonpayable",
      "type": "function"
    },
    {
      "inputs": [
        {
          "internalType": "address",
          "name": "operator",
          "type": "address"
        },
        {
          "internalType": "bool",
          "name": "approved",
          "type": "bool"
        }
      ],
      "name": "setApprovalForAll",
      "outputs": [],
      "stateMutability": "nonpayable",
      "type": "function"
    },
    {
      "inputs": [
        {
          "internalType": "bytes4",
          "name": "interfaceId",
          "type": "bytes4"
        }
      ],
      "name": "supportsInterface",
      "outputs": [
        {
          "internalType": "bool",
          "name": "",
          "type": "bool"
        }
      ],
      "stateMutability": "view",
      "type": "function"
    },
    {
      "inputs": [],
      "name": "symbol",
      "outputs": [
        {
          "internalType": "string",
          "name": "",
          "type": "string"
        }
      ],
      "stateMutability": "view",
      "type": "function"
    },
    {
      "inputs": [
        {
          "internalType": "uint256",
          "name": "tokenId",
          "type": "uint256"
        }
      ],
      "name": "tokenURI",
      "outputs": [
        {
          "internalType": "string",
          "name": "",
          "type": "string"
        }
      ],
      "stateMutability": "view",
      "type": "function"
    },
    {
      "inputs": [
        {
          "internalType": "address",
          "name": "from",
          "type": "address"
        },
        {
          "internalType": "address",
          "name": "to",
          "type": "address"
        },
        {
          "internalType": "uint256",
          "name": "tokenId",
          "type": "uint256"
        }
      ],
      "name": "transferFrom",
      "outputs": [],
      "stateMutability": "nonpayable",
      "type": "function"
    },
    {
      "inputs": [
        {
          "internalType": "uint256",
          "name": "_listingPrice",
          "type": "uint256"
        }
      ],
      "name": "updateListingPrice",
      "outputs": [],
      "stateMutability": "payable",
      "type": "function"
    }
  ],
  "bytecode": "0x60806040526608e1bc9bf040006009553480156200001c57600080fd5b506040518060400160405280601381526020017f4e4654204d657461766572736520746f6b656e000000000000000000000000008152506040518060400160405280600581526020017f4d594e465400000000000000000000000000000000000000000000000000000081525081600090816200009a919062000370565b508060019081620000ac919062000370565b50505033600a60006101000a81548173ffffffffffffffffffffffffffffffffffffffff021916908373ffffffffffffffffffffffffffffffffffffffff16021790555062000457565b600081519050919050565b7f4e487b7100000000000000000000000000000000000000000000000000000000600052604160045260246000fd5b7f4e487b7100000000000000000000000000000000000000000000000000000000600052602260045260246000fd5b600060028204905060018216806200017857607f821691505b6020821081036200018e576200018d62000130565b5b50919050565b60008190508160005260206000209050919050565b60006020601f8301049050919050565b600082821b905092915050565b600060088302620001f87fffffffffffffffffffffffffffffffffffffffffffffffffffffffffffffffff82620001b9565b620002048683620001b9565b95508019841693508086168417925050509392505050565b6000819050919050565b6000819050919050565b6000620002516200024b62000245846200021c565b62000226565b6200021c565b9050919050565b6000819050919050565b6200026d8362000230565b620002856200027c8262000258565b848454620001c6565b825550505050565b600090565b6200029c6200028d565b620002a981848462000262565b505050565b5b81811015620002d157620002c560008262000292565b600181019050620002af565b5050565b601f8211156200032057620002ea8162000194565b620002f584620001a9565b8101602085101562000305578190505b6200031d6200031485620001a9565b830182620002ae565b50505b505050565b600082821c905092915050565b6000620003456000198460080262000325565b1980831691505092915050565b600062000360838362000332565b9150826002028217905092915050565b6200037b82620000f6565b67ffffffffffffffff81111562000397576200039662000101565b5b620003a382546200015f565b620003b0828285620002d5565b600060209050601f831160018114620003e85760008415620003d3578287015190505b620003df858262000352565b8655506200044f565b601f198416620003f88662000194565b60005b828110156200042257848901518255600182019150602085019450602081019050620003fb565b868310156200044257848901516200043e601f89168262000332565b8355505b6001600288020188555050505b505050505050565b6143b780620004676000396000f3fe6080604052600436106101355760003560e01c806370a08231116100ab578063a22cb4651161006f578063a22cb46514610438578063ae677aa314610461578063b88d4fde1461047d578063be9af536146104a6578063c87b56dd146104c2578063e985e9c5146104ff57610135565b806370a082311461035957806372b3b6201461039657806385535b25146103c657806395d89b41146103e25780639f7699eb1461040d57610135565b80630f08efe0116100fd5780630f08efe01461024957806312e855851461027457806323b872dd1461029f57806342842e0e146102c857806345f8fa80146102f15780636352211e1461031c57610135565b806301ffc9a71461013a57806306fdde0314610177578063081812fc146101a2578063087ae8a2146101df578063095ea7b314610220575b600080fd5b34801561014657600080fd5b50610161600480360381019061015c9190612c19565b61053c565b60405161016e9190612c61565b60405180910390f35b34801561018357600080fd5b5061018c61059d565b6040516101999190612d0c565b60405180910390f35b3480156101ae57600080fd5b506101c960048036038101906101c49190612d64565b61062f565b6040516101d69190612dd2565b60405180910390f35b3480156101eb57600080fd5b5061020660048036038101906102019190612d64565b610675565b604051610217959493929190612e1d565b60405180910390f35b34801561022c57600080fd5b5061024760048036038101906102429190612e9c565b6106f8565b005b34801561025557600080fd5b5061025e61080f565b60405161026b9190613020565b60405180910390f35b34801561028057600080fd5b50610289610a77565b6040516102969190613042565b60405180910390f35b3480156102ab57600080fd5b506102c660048036038101906102c1919061305d565b610a81565b005b3480156102d457600080fd5b506102ef60048036038101906102ea919061305d565b610ae1565b005b3480156102fd57600080fd5b50610306610b01565b6040516103139190613020565b60405180910390f35b34801561032857600080fd5b50610343600480360381019061033e9190612d64565b610dec565b6040516103509190612dd2565b60405180910390f35b34801561036557600080fd5b50610380600480360381019061037b91906130b0565b610e72565b60405161038d9190613042565b60405180910390f35b6103b060048036038101906103ab9190613212565b610f29565b6040516103bd9190613042565b60405180910390f35b6103e060048036038101906103db919061326e565b610f6b565b005b3480156103ee57600080fd5b506103f761111c565b6040516104049190612d0c565b60405180910390f35b34801561041957600080fd5b506104226111ae565b60405161042f9190613020565b60405180910390f35b34801561044457600080fd5b5061045f600480360381019061045a91906132da565b61149a565b005b61047b60048036038101906104769190612d64565b6114b0565b005b34801561048957600080fd5b506104a4600480360381019061049f91906133bb565b61154a565b005b6104c060048036038101906104bb9190612d64565b6115ac565b005b3480156104ce57600080fd5b506104e960048036038101906104e49190612d64565b6117e4565b6040516104f69190612d0c565b60405180910390f35b34801561050b57600080fd5b506105266004803603810190610521919061343e565b6118f6565b6040516105339190612c61565b60405180910390f35b6000634906490660e01b7bffffffffffffffffffffffffffffffffffffffffffffffffffffffff1916827bffffffffffffffffffffffffffffffffffffffffffffffffffffffff1916148061059657506105958261198a565b5b9050919050565b6060600080546105ac906134ad565b80601f01602080910402602001604051908101604052809291908181526020018280546105d8906134ad565b80156106255780601f106105fa57610100808354040283529160200191610625565b820191906000526020600020905b81548152906001019060200180831161060857829003601f168201915b5050505050905090565b600061063a82611a6c565b6004600083815260200190815260200160002060009054906101000a900473ffffffffffffffffffffffffffffffffffffffff169050919050565b600b6020528060005260406000206000915090508060000154908060010160009054906101000a900473ffffffffffffffffffffffffffffffffffffffff16908060020160009054906101000a900473ffffffffffffffffffffffffffffffffffffffff16908060030154908060040160009054906101000a900460ff16905085565b600061070382610dec565b90508073ffffffffffffffffffffffffffffffffffffffff168373ffffffffffffffffffffffffffffffffffffffff1603610773576040517f08c379a000000000000000000000000000000000000000000000000000000000815260040161076a90613550565b60405180910390fd5b8073ffffffffffffffffffffffffffffffffffffffff16610792611ab7565b73ffffffffffffffffffffffffffffffffffffffff1614806107c157506107c0816107bb611ab7565b6118f6565b5b610800576040517f08c379a00000000000000000000000000000000000000000000000000000000081526004016107f7906135e2565b60405180910390fd5b61080a8383611abf565b505050565b6060600061081d6007611b78565b9050600061082b6008611b78565b6108356007611b78565b61083f9190613631565b90506000808267ffffffffffffffff81111561085e5761085d6130e7565b5b60405190808252806020026020018201604052801561089757816020015b610884612b50565b81526020019060019003908161087c5790505b50905060005b84811015610a6c573073ffffffffffffffffffffffffffffffffffffffff16600b60006001846108cd9190613665565b815260200190815260200160002060020160009054906101000a900473ffffffffffffffffffffffffffffffffffffffff1673ffffffffffffffffffffffffffffffffffffffff1603610a595760006001826109299190613665565b90506000600b60008381526020019081526020016000209050806040518060a0016040529081600082015481526020016001820160009054906101000a900473ffffffffffffffffffffffffffffffffffffffff1673ffffffffffffffffffffffffffffffffffffffff1673ffffffffffffffffffffffffffffffffffffffff1681526020016002820160009054906101000a900473ffffffffffffffffffffffffffffffffffffffff1673ffffffffffffffffffffffffffffffffffffffff1673ffffffffffffffffffffffffffffffffffffffff168152602001600382015481526020016004820160009054906101000a900460ff161515151581525050848681518110610a3c57610a3b613699565b5b6020026020010181905250600185610a549190613665565b945050505b8080610a64906136c8565b91505061089d565b508094505050505090565b6000600954905090565b610a92610a8c611ab7565b82611b86565b610ad1576040517f08c379a0000000000000000000000000000000000000000000000000000000008152600401610ac890613782565b60405180910390fd5b610adc838383611c1b565b505050565b610afc8383836040518060200160405280600081525061154a565b505050565b6060600080610b106007611b78565b90506000808367ffffffffffffffff811115610b2f57610b2e6130e7565b5b604051908082528060200260200182016040528015610b6857816020015b610b55612b50565b815260200190600190039081610b4d5790505b50905060005b84811015610c0e573373ffffffffffffffffffffffffffffffffffffffff16600b6000600184610b9e9190613665565b815260200190815260200160002060010160009054906101000a900473ffffffffffffffffffffffffffffffffffffffff1673ffffffffffffffffffffffffffffffffffffffff1603610bfb57600185610bf89190613665565b94505b8080610c06906136c8565b915050610b6e565b5060005b83811015610de1573373ffffffffffffffffffffffffffffffffffffffff16600b6000600184610c429190613665565b815260200190815260200160002060010160009054906101000a900473ffffffffffffffffffffffffffffffffffffffff1673ffffffffffffffffffffffffffffffffffffffff1603610dce576000600182610c9e9190613665565b90506000600b60008381526020019081526020016000209050806040518060a0016040529081600082015481526020016001820160009054906101000a900473ffffffffffffffffffffffffffffffffffffffff1673ffffffffffffffffffffffffffffffffffffffff1673ffffffffffffffffffffffffffffffffffffffff1681526020016002820160009054906101000a900473ffffffffffffffffffffffffffffffffffffffff1673ffffffffffffffffffffffffffffffffffffffff1673ffffffffffffffffffffffffffffffffffffffff168152602001600382015481526020016004820160009054906101000a900460ff161515151581525050848681518110610db157610db0613699565b5b6020026020010181905250600185610dc99190613665565b945050505b8080610dd9906136c8565b915050610c12565b508094505050505090565b600080610df883611f14565b9050600073ffffffffffffffffffffffffffffffffffffffff168173ffffffffffffffffffffffffffffffffffffffff1603610e69576040517f08c379a0000000000000000000000000000000000000000000000000000000008152600401610e60906137ee565b60405180910390fd5b80915050919050565b60008073ffffffffffffffffffffffffffffffffffffffff168273ffffffffffffffffffffffffffffffffffffffff1603610ee2576040517f08c379a0000000000000000000000000000000000000000000000000000000008152600401610ed990613880565b60405180910390fd5b600360008373ffffffffffffffffffffffffffffffffffffffff1673ffffffffffffffffffffffffffffffffffffffff168152602001908152602001600020549050919050565b6000610f356007611f51565b6000610f416007611b78565b9050610f4d3382611f67565b610f578185612184565b610f618184612228565b8091505092915050565b3373ffffffffffffffffffffffffffffffffffffffff16600b600084815260200190815260200160002060020160009054906101000a900473ffffffffffffffffffffffffffffffffffffffff1673ffffffffffffffffffffffffffffffffffffffff161461100f576040517f08c379a000000000000000000000000000000000000000000000000000000000815260040161100690613912565b60405180910390fd5b80600b60008481526020019081526020016000206003018190555033600b600084815260200190815260200160002060010160006101000a81548173ffffffffffffffffffffffffffffffffffffffff021916908373ffffffffffffffffffffffffffffffffffffffff1602179055506000600b600084815260200190815260200160002060040160006101000a81548160ff02191690831515021790555030600b600084815260200190815260200160002060020160006101000a81548173ffffffffffffffffffffffffffffffffffffffff021916908373ffffffffffffffffffffffffffffffffffffffff16021790555061110d600861242b565b611118333084611c1b565b5050565b60606001805461112b906134ad565b80601f0160208091040260200160405190810160405280929190818152602001828054611157906134ad565b80156111a45780601f10611179576101008083540402835291602001916111a4565b820191906000526020600020905b81548152906001019060200180831161118757829003601f168201915b5050505050905090565b606060006111bc6007611b78565b905060008060008267ffffffffffffffff8111156111dd576111dc6130e7565b5b60405190808252806020026020018201604052801561121657816020015b611203612b50565b8152602001906001900390816111fb5790505b50905060005b838110156112bc573373ffffffffffffffffffffffffffffffffffffffff16600b600060018461124c9190613665565b815260200190815260200160002060020160009054906101000a900473ffffffffffffffffffffffffffffffffffffffff1673ffffffffffffffffffffffffffffffffffffffff16036112a9576001846112a69190613665565b93505b80806112b4906136c8565b91505061121c565b5060005b8481101561148f573373ffffffffffffffffffffffffffffffffffffffff16600b60006001846112f09190613665565b815260200190815260200160002060020160009054906101000a900473ffffffffffffffffffffffffffffffffffffffff1673ffffffffffffffffffffffffffffffffffffffff160361147c57600060018261134c9190613665565b90506000600b60008381526020019081526020016000209050806040518060a0016040529081600082015481526020016001820160009054906101000a900473ffffffffffffffffffffffffffffffffffffffff1673ffffffffffffffffffffffffffffffffffffffff1673ffffffffffffffffffffffffffffffffffffffff1681526020016002820160009054906101000a900473ffffffffffffffffffffffffffffffffffffffff1673ffffffffffffffffffffffffffffffffffffffff1673ffffffffffffffffffffffffffffffffffffffff168152602001600382015481526020016004820160009054906101000a900460ff16151515158152505084868151811061145f5761145e613699565b5b60200260200101819052506001856114779190613665565b945050505b8080611487906136c8565b9150506112c0565b508094505050505090565b6114ac6114a5611ab7565b8383612487565b5050565b600a60009054906101000a900473ffffffffffffffffffffffffffffffffffffffff1673ffffffffffffffffffffffffffffffffffffffff163373ffffffffffffffffffffffffffffffffffffffff1614611540576040517f08c379a0000000000000000000000000000000000000000000000000000000008152600401611537906139a4565b60405180910390fd5b8060098190555050565b61155b611555611ab7565b83611b86565b61159a576040517f08c379a000000000000000000000000000000000000000000000000000000000815260040161159190613782565b60405180910390fd5b6115a6848484846125f3565b50505050565b6000600b6000838152602001908152602001600020600301549050803414611609576040517f08c379a000000000000000000000000000000000000000000000000000000000815260040161160090613a36565b60405180910390fd5b33600b600084815260200190815260200160002060020160006101000a81548173ffffffffffffffffffffffffffffffffffffffff021916908373ffffffffffffffffffffffffffffffffffffffff1602179055506001600b600084815260200190815260200160002060040160006101000a81548160ff0219169083151502179055506000600b600084815260200190815260200160002060020160006101000a81548173ffffffffffffffffffffffffffffffffffffffff021916908373ffffffffffffffffffffffffffffffffffffffff1602179055506116ed6008611f51565b6116f8303384611c1b565b600a60009054906101000a900473ffffffffffffffffffffffffffffffffffffffff1673ffffffffffffffffffffffffffffffffffffffff166108fc6009549081150290604051600060405180830381858888f19350505050158015611762573d6000803e3d6000fd5b50600b600083815260200190815260200160002060010160009054906101000a900473ffffffffffffffffffffffffffffffffffffffff1673ffffffffffffffffffffffffffffffffffffffff166108fc829081150290604051600060405180830381858888f193505050501580156117df573d6000803e3d6000fd5b505050565b60606117ef82611a6c565b600060066000848152602001908152602001600020805461180f906134ad565b80601f016020809104026020016040519081016040528092919081815260200182805461183b906134ad565b80156118885780601f1061185d57610100808354040283529160200191611888565b820191906000526020600020905b81548152906001019060200180831161186b57829003601f168201915b50505050509050600061189961264f565b905060008151036118ae5781925050506118f1565b6000825111156118e35780826040516020016118cb929190613a92565b604051602081830303815290604052925050506118f1565b6118ec84612666565b925050505b919050565b6000600560008473ffffffffffffffffffffffffffffffffffffffff1673ffffffffffffffffffffffffffffffffffffffff16815260200190815260200160002060008373ffffffffffffffffffffffffffffffffffffffff1673ffffffffffffffffffffffffffffffffffffffff16815260200190815260200160002060009054906101000a900460ff16905092915050565b60007f80ac58cd000000000000000000000000000000000000000000000000000000007bffffffffffffffffffffffffffffffffffffffffffffffffffffffff1916827bffffffffffffffffffffffffffffffffffffffffffffffffffffffff19161480611a5557507f5b5e139f000000000000000000000000000000000000000000000000000000007bffffffffffffffffffffffffffffffffffffffffffffffffffffffff1916827bffffffffffffffffffffffffffffffffffffffffffffffffffffffff1916145b80611a655750611a64826126ce565b5b9050919050565b611a7581612738565b611ab4576040517f08c379a0000000000000000000000000000000000000000000000000000000008152600401611aab906137ee565b60405180910390fd5b50565b600033905090565b816004600083815260200190815260200160002060006101000a81548173ffffffffffffffffffffffffffffffffffffffff021916908373ffffffffffffffffffffffffffffffffffffffff160217905550808273ffffffffffffffffffffffffffffffffffffffff16611b3283610dec565b73ffffffffffffffffffffffffffffffffffffffff167f8c5be1e5ebec7d5bd14f71427d1e84f3dd0314c0f7b2291e5b200ac8c7c3b92560405160405180910390a45050565b600081600001549050919050565b600080611b9283610dec565b90508073ffffffffffffffffffffffffffffffffffffffff168473ffffffffffffffffffffffffffffffffffffffff161480611bd45750611bd381856118f6565b5b80611c1257508373ffffffffffffffffffffffffffffffffffffffff16611bfa8461062f565b73ffffffffffffffffffffffffffffffffffffffff16145b91505092915050565b8273ffffffffffffffffffffffffffffffffffffffff16611c3b82610dec565b73ffffffffffffffffffffffffffffffffffffffff1614611c91576040517f08c379a0000000000000000000000000000000000000000000000000000000008152600401611c8890613b28565b60405180910390fd5b600073ffffffffffffffffffffffffffffffffffffffff168273ffffffffffffffffffffffffffffffffffffffff1603611d00576040517f08c379a0000000000000000000000000000000000000000000000000000000008152600401611cf790613bba565b60405180910390fd5b611d0d8383836001612779565b8273ffffffffffffffffffffffffffffffffffffffff16611d2d82610dec565b73ffffffffffffffffffffffffffffffffffffffff1614611d83576040517f08c379a0000000000000000000000000000000000000000000000000000000008152600401611d7a90613b28565b60405180910390fd5b6004600082815260200190815260200160002060006101000a81549073ffffffffffffffffffffffffffffffffffffffff02191690556001600360008573ffffffffffffffffffffffffffffffffffffffff1673ffffffffffffffffffffffffffffffffffffffff168152602001908152602001600020600082825403925050819055506001600360008473ffffffffffffffffffffffffffffffffffffffff1673ffffffffffffffffffffffffffffffffffffffff16815260200190815260200160002060008282540192505081905550816002600083815260200190815260200160002060006101000a81548173ffffffffffffffffffffffffffffffffffffffff021916908373ffffffffffffffffffffffffffffffffffffffff160217905550808273ffffffffffffffffffffffffffffffffffffffff168473ffffffffffffffffffffffffffffffffffffffff167fddf252ad1be2c89b69c2b068fc378daa952ba7f163c4a11628f55a4df523b3ef60405160405180910390a4611f0f838383600161277f565b505050565b60006002600083815260200190815260200160002060009054906101000a900473ffffffffffffffffffffffffffffffffffffffff169050919050565b6001816000016000828254019250508190555050565b600073ffffffffffffffffffffffffffffffffffffffff168273ffffffffffffffffffffffffffffffffffffffff1603611fd6576040517f08c379a0000000000000000000000000000000000000000000000000000000008152600401611fcd90613c26565b60405180910390fd5b611fdf81612738565b1561201f576040517f08c379a000000000000000000000000000000000000000000000000000000000815260040161201690613c92565b60405180910390fd5b61202d600083836001612779565b61203681612738565b15612076576040517f08c379a000000000000000000000000000000000000000000000000000000000815260040161206d90613c92565b60405180910390fd5b6001600360008473ffffffffffffffffffffffffffffffffffffffff1673ffffffffffffffffffffffffffffffffffffffff16815260200190815260200160002060008282540192505081905550816002600083815260200190815260200160002060006101000a81548173ffffffffffffffffffffffffffffffffffffffff021916908373ffffffffffffffffffffffffffffffffffffffff160217905550808273ffffffffffffffffffffffffffffffffffffffff16600073ffffffffffffffffffffffffffffffffffffffff167fddf252ad1be2c89b69c2b068fc378daa952ba7f163c4a11628f55a4df523b3ef60405160405180910390a461218060008383600161277f565b5050565b61218d82612738565b6121cc576040517f08c379a00000000000000000000000000000000000000000000000000000000081526004016121c390613d24565b60405180910390fd5b806006600084815260200190815260200160002090816121ec9190613ef0565b507ff8e1a15aba9398e019f0b49df1a4fde98ee17ae345cb5f6b5e2c27f5033e8ce78260405161221c9190613042565b60405180910390a15050565b600954341461226c576040517f08c379a000000000000000000000000000000000000000000000000000000000815260040161226390614034565b60405180910390fd5b600081116122af576040517f08c379a00000000000000000000000000000000000000000000000000000000081526004016122a6906140a0565b60405180910390fd5b6040518060a001604052808381526020013373ffffffffffffffffffffffffffffffffffffffff1681526020013073ffffffffffffffffffffffffffffffffffffffff16815260200182815260200160001515815250600b60008481526020019081526020016000206000820151816000015560208201518160010160006101000a81548173ffffffffffffffffffffffffffffffffffffffff021916908373ffffffffffffffffffffffffffffffffffffffff16021790555060408201518160020160006101000a81548173ffffffffffffffffffffffffffffffffffffffff021916908373ffffffffffffffffffffffffffffffffffffffff1602179055506060820151816003015560808201518160040160006101000a81548160ff0219169083151502179055509050506123e8333084611c1b565b817fb640004f1d14576d0c209e240cad0410e0d8c0c33a09375861fbadae2588a98d333084600060405161241f94939291906140c0565b60405180910390a25050565b60008160000154905060008111612477576040517f08c379a000000000000000000000000000000000000000000000000000000000815260040161246e90614151565b60405180910390fd5b6001810382600001819055505050565b8173ffffffffffffffffffffffffffffffffffffffff168373ffffffffffffffffffffffffffffffffffffffff16036124f5576040517f08c379a00000000000000000000000000000000000000000000000000000000081526004016124ec906141bd565b60405180910390fd5b80600560008573ffffffffffffffffffffffffffffffffffffffff1673ffffffffffffffffffffffffffffffffffffffff16815260200190815260200160002060008473ffffffffffffffffffffffffffffffffffffffff1673ffffffffffffffffffffffffffffffffffffffff16815260200190815260200160002060006101000a81548160ff0219169083151502179055508173ffffffffffffffffffffffffffffffffffffffff168373ffffffffffffffffffffffffffffffffffffffff167f17307eab39ab6107e8899845ad3d59bd9653f200f220920489ca2b5937696c31836040516125e69190612c61565b60405180910390a3505050565b6125fe848484611c1b565b61260a84848484612785565b612649576040517f08c379a00000000000000000000000000000000000000000000000000000000081526004016126409061424f565b60405180910390fd5b50505050565b606060405180602001604052806000815250905090565b606061267182611a6c565b600061267b61264f565b9050600081511161269b57604051806020016040528060008152506126c6565b806126a58461290c565b6040516020016126b6929190613a92565b6040516020818303038152906040525b915050919050565b60007f01ffc9a7000000000000000000000000000000000000000000000000000000007bffffffffffffffffffffffffffffffffffffffffffffffffffffffff1916827bffffffffffffffffffffffffffffffffffffffffffffffffffffffff1916149050919050565b60008073ffffffffffffffffffffffffffffffffffffffff1661275a83611f14565b73ffffffffffffffffffffffffffffffffffffffff1614159050919050565b50505050565b50505050565b60006127a68473ffffffffffffffffffffffffffffffffffffffff166129da565b156128ff578373ffffffffffffffffffffffffffffffffffffffff1663150b7a026127cf611ab7565b8786866040518563ffffffff1660e01b81526004016127f194939291906142c4565b6020604051808303816000875af192505050801561282d57506040513d601f19601f8201168201806040525081019061282a9190614325565b60015b6128af573d806000811461285d576040519150601f19603f3d011682016040523d82523d6000602084013e612862565b606091505b5060008151036128a7576040517f08c379a000000000000000000000000000000000000000000000000000000000815260040161289e9061424f565b60405180910390fd5b805181602001fd5b63150b7a0260e01b7bffffffffffffffffffffffffffffffffffffffffffffffffffffffff1916817bffffffffffffffffffffffffffffffffffffffffffffffffffffffff191614915050612904565b600190505b949350505050565b60606000600161291b846129fd565b01905060008167ffffffffffffffff81111561293a576129396130e7565b5b6040519080825280601f01601f19166020018201604052801561296c5781602001600182028036833780820191505090505b509050600082602001820190505b6001156129cf578080600190039150507f3031323334353637383961626364656600000000000000000000000000000000600a86061a8153600a85816129c3576129c2614352565b5b0494506000850361297a575b819350505050919050565b6000808273ffffffffffffffffffffffffffffffffffffffff163b119050919050565b600080600090507a184f03e93ff9f4daa797ed6e38ed64bf6a1f0100000000000000008310612a5b577a184f03e93ff9f4daa797ed6e38ed64bf6a1f0100000000000000008381612a5157612a50614352565b5b0492506040810190505b6d04ee2d6d415b85acef81000000008310612a98576d04ee2d6d415b85acef81000000008381612a8e57612a8d614352565b5b0492506020810190505b662386f26fc100008310612ac757662386f26fc100008381612abd57612abc614352565b5b0492506010810190505b6305f5e1008310612af0576305f5e1008381612ae657612ae5614352565b5b0492506008810190505b6127108310612b15576127108381612b0b57612b0a614352565b5b0492506004810190505b60648310612b385760648381612b2e57612b2d614352565b5b0492506002810190505b600a8310612b47576001810190505b80915050919050565b6040518060a0016040528060008152602001600073ffffffffffffffffffffffffffffffffffffffff168152602001600073ffffffffffffffffffffffffffffffffffffffff168152602001600081526020016000151581525090565b6000604051905090565b600080fd5b600080fd5b60007fffffffff0000000000000000000000000000000000000000000000000000000082169050919050565b612bf681612bc1565b8114612c0157600080fd5b50565b600081359050612c1381612bed565b92915050565b600060208284031215612c2f57612c2e612bb7565b5b6000612c3d84828501612c04565b91505092915050565b60008115159050919050565b612c5b81612c46565b82525050565b6000602082019050612c766000830184612c52565b92915050565b600081519050919050565b600082825260208201905092915050565b60005b83811015612cb6578082015181840152602081019050612c9b565b60008484015250505050565b6000601f19601f8301169050919050565b6000612cde82612c7c565b612ce88185612c87565b9350612cf8818560208601612c98565b612d0181612cc2565b840191505092915050565b60006020820190508181036000830152612d268184612cd3565b905092915050565b6000819050919050565b612d4181612d2e565b8114612d4c57600080fd5b50565b600081359050612d5e81612d38565b92915050565b600060208284031215612d7a57612d79612bb7565b5b6000612d8884828501612d4f565b91505092915050565b600073ffffffffffffffffffffffffffffffffffffffff82169050919050565b6000612dbc82612d91565b9050919050565b612dcc81612db1565b82525050565b6000602082019050612de76000830184612dc3565b92915050565b612df681612d2e565b82525050565b6000612e0782612d91565b9050919050565b612e1781612dfc565b82525050565b600060a082019050612e326000830188612ded565b612e3f6020830187612e0e565b612e4c6040830186612e0e565b612e596060830185612ded565b612e666080830184612c52565b9695505050505050565b612e7981612db1565b8114612e8457600080fd5b50565b600081359050612e9681612e70565b92915050565b60008060408385031215612eb357612eb2612bb7565b5b6000612ec185828601612e87565b9250506020612ed285828601612d4f565b9150509250929050565b600081519050919050565b600082825260208201905092915050565b6000819050602082019050919050565b612f1181612d2e565b82525050565b612f2081612dfc565b82525050565b612f2f81612c46565b82525050565b60a082016000820151612f4b6000850182612f08565b506020820151612f5e6020850182612f17565b506040820151612f716040850182612f17565b506060820151612f846060850182612f08565b506080820151612f976080850182612f26565b50505050565b6000612fa98383612f35565b60a08301905092915050565b6000602082019050919050565b6000612fcd82612edc565b612fd78185612ee7565b9350612fe283612ef8565b8060005b83811015613013578151612ffa8882612f9d565b975061300583612fb5565b925050600181019050612fe6565b5085935050505092915050565b6000602082019050818103600083015261303a8184612fc2565b905092915050565b60006020820190506130576000830184612ded565b92915050565b60008060006060848603121561307657613075612bb7565b5b600061308486828701612e87565b935050602061309586828701612e87565b92505060406130a686828701612d4f565b9150509250925092565b6000602082840312156130c6576130c5612bb7565b5b60006130d484828501612e87565b91505092915050565b600080fd5b600080fd5b7f4e487b7100000000000000000000000000000000000000000000000000000000600052604160045260246000fd5b61311f82612cc2565b810181811067ffffffffffffffff8211171561313e5761313d6130e7565b5b80604052505050565b6000613151612bad565b905061315d8282613116565b919050565b600067ffffffffffffffff82111561317d5761317c6130e7565b5b61318682612cc2565b9050602081019050919050565b82818337600083830152505050565b60006131b56131b084613162565b613147565b9050828152602081018484840111156131d1576131d06130e2565b5b6131dc848285613193565b509392505050565b600082601f8301126131f9576131f86130dd565b5b81356132098482602086016131a2565b91505092915050565b6000806040838503121561322957613228612bb7565b5b600083013567ffffffffffffffff81111561324757613246612bbc565b5b613253858286016131e4565b925050602061326485828601612d4f565b9150509250929050565b6000806040838503121561328557613284612bb7565b5b600061329385828601612d4f565b92505060206132a485828601612d4f565b9150509250929050565b6132b781612c46565b81146132c257600080fd5b50565b6000813590506132d4816132ae565b92915050565b600080604083850312156132f1576132f0612bb7565b5b60006132ff85828601612e87565b9250506020613310858286016132c5565b9150509250929050565b600067ffffffffffffffff821115613335576133346130e7565b5b61333e82612cc2565b9050602081019050919050565b600061335e6133598461331a565b613147565b90508281526020810184848401111561337a576133796130e2565b5b613385848285613193565b509392505050565b600082601f8301126133a2576133a16130dd565b5b81356133b284826020860161334b565b91505092915050565b600080600080608085870312156133d5576133d4612bb7565b5b60006133e387828801612e87565b94505060206133f487828801612e87565b935050604061340587828801612d4f565b925050606085013567ffffffffffffffff81111561342657613425612bbc565b5b6134328782880161338d565b91505092959194509250565b6000806040838503121561345557613454612bb7565b5b600061346385828601612e87565b925050602061347485828601612e87565b9150509250929050565b7f4e487b7100000000000000000000000000000000000000000000000000000000600052602260045260246000fd5b600060028204905060018216806134c557607f821691505b6020821081036134d8576134d761347e565b5b50919050565b7f4552433732313a20617070726f76616c20746f2063757272656e74206f776e6560008201527f7200000000000000000000000000000000000000000000000000000000000000602082015250565b600061353a602183612c87565b9150613545826134de565b604082019050919050565b600060208201905081810360008301526135698161352d565b9050919050565b7f4552433732313a20617070726f76652063616c6c6572206973206e6f7420746f60008201527f6b656e206f776e6572206f7220617070726f76656420666f7220616c6c000000602082015250565b60006135cc603d83612c87565b91506135d782613570565b604082019050919050565b600060208201905081810360008301526135fb816135bf565b9050919050565b7f4e487b7100000000000000000000000000000000000000000000000000000000600052601160045260246000fd5b600061363c82612d2e565b915061364783612d2e565b925082820390508181111561365f5761365e613602565b5b92915050565b600061367082612d2e565b915061367b83612d2e565b925082820190508082111561369357613692613602565b5b92915050565b7f4e487b7100000000000000000000000000000000000000000000000000000000600052603260045260246000fd5b60006136d382612d2e565b91507fffffffffffffffffffffffffffffffffffffffffffffffffffffffffffffffff820361370557613704613602565b5b600182019050919050565b7f4552433732313a2063616c6c6572206973206e6f7420746f6b656e206f776e6560008201527f72206f7220617070726f76656400000000000000000000000000000000000000602082015250565b600061376c602d83612c87565b915061377782613710565b604082019050919050565b6000602082019050818103600083015261379b8161375f565b9050919050565b7f4552433732313a20696e76616c696420746f6b656e2049440000000000000000600082015250565b60006137d8601883612c87565b91506137e3826137a2565b602082019050919050565b60006020820190508181036000830152613807816137cb565b9050919050565b7f4552433732313a2061646472657373207a65726f206973206e6f74206120766160008201527f6c6964206f776e65720000000000000000000000000000000000000000000000602082015250565b600061386a602983612c87565b91506138758261380e565b604082019050919050565b600060208201905081810360008301526138998161385d565b9050919050565b7f596f7520617265206e6f7420746865206f776e6572206f66207468697320746f60008201527f6b656e0000000000000000000000000000000000000000000000000000000000602082015250565b60006138fc602383612c87565b9150613907826138a0565b604082019050919050565b6000602082019050818103600083015261392b816138ef565b9050919050565b7f4f6e6c79206f776e65722063616e2063616c6c20746869732066756e6374696f60008201527f6e00000000000000000000000000000000000000000000000000000000000000602082015250565b600061398e602183612c87565b915061399982613932565b604082019050919050565b600060208201905081810360008301526139bd81613981565b9050919050565b7f506c65617365207375626d6974207468652061736b696e67207072696365206960008201527f6e206f7264657220746f20636f6d706c65746520746865207075726368617365602082015250565b6000613a20604083612c87565b9150613a2b826139c4565b604082019050919050565b60006020820190508181036000830152613a4f81613a13565b9050919050565b600081905092915050565b6000613a6c82612c7c565b613a768185613a56565b9350613a86818560208601612c98565b80840191505092915050565b6000613a9e8285613a61565b9150613aaa8284613a61565b91508190509392505050565b7f4552433732313a207472616e736665722066726f6d20696e636f72726563742060008201527f6f776e6572000000000000000000000000000000000000000000000000000000602082015250565b6000613b12602583612c87565b9150613b1d82613ab6565b604082019050919050565b60006020820190508181036000830152613b4181613b05565b9050919050565b7f4552433732313a207472616e7366657220746f20746865207a65726f2061646460008201527f7265737300000000000000000000000000000000000000000000000000000000602082015250565b6000613ba4602483612c87565b9150613baf82613b48565b604082019050919050565b60006020820190508181036000830152613bd381613b97565b9050919050565b7f4552433732313a206d696e7420746f20746865207a65726f2061646472657373600082015250565b6000613c10602083612c87565b9150613c1b82613bda565b602082019050919050565b60006020820190508181036000830152613c3f81613c03565b9050919050565b7f4552433732313a20746f6b656e20616c7265616479206d696e74656400000000600082015250565b6000613c7c601c83612c87565b9150613c8782613c46565b602082019050919050565b60006020820190508181036000830152613cab81613c6f565b9050919050565b7f45524337323155524953746f726167653a2055524920736574206f66206e6f6e60008201527f6578697374656e7420746f6b656e000000000000000000000000000000000000602082015250565b6000613d0e602e83612c87565b9150613d1982613cb2565b604082019050919050565b60006020820190508181036000830152613d3d81613d01565b9050919050565b60008190508160005260206000209050919050565b60006020601f8301049050919050565b600082821b905092915050565b600060088302613da67fffffffffffffffffffffffffffffffffffffffffffffffffffffffffffffffff82613d69565b613db08683613d69565b95508019841693508086168417925050509392505050565b6000819050919050565b6000613ded613de8613de384612d2e565b613dc8565b612d2e565b9050919050565b6000819050919050565b613e0783613dd2565b613e1b613e1382613df4565b848454613d76565b825550505050565b600090565b613e30613e23565b613e3b818484613dfe565b505050565b5b81811015613e5f57613e54600082613e28565b600181019050613e41565b5050565b601f821115613ea457613e7581613d44565b613e7e84613d59565b81016020851015613e8d578190505b613ea1613e9985613d59565b830182613e40565b50505b505050565b600082821c905092915050565b6000613ec760001984600802613ea9565b1980831691505092915050565b6000613ee08383613eb6565b9150826002028217905092915050565b613ef982612c7c565b67ffffffffffffffff811115613f1257613f116130e7565b5b613f1c82546134ad565b613f27828285613e63565b600060209050601f831160018114613f5a5760008415613f48578287015190505b613f528582613ed4565b865550613fba565b601f198416613f6886613d44565b60005b82811015613f9057848901518255600182019150602085019450602081019050613f6b565b86831015613fad5784890151613fa9601f891682613eb6565b8355505b6001600288020188555050505b505050505050565b7f5072696365206d75737420626520657175616c20746f206c697374696e67207060008201527f7269636500000000000000000000000000000000000000000000000000000000602082015250565b600061401e602483612c87565b915061402982613fc2565b604082019050919050565b6000602082019050818103600083015261404d81614011565b9050919050565b7f5072696365206d7573742062652067726561746572207468616e203000000000600082015250565b600061408a601c83612c87565b915061409582614054565b602082019050919050565b600060208201905081810360008301526140b98161407d565b9050919050565b60006080820190506140d56000830187612e0e565b6140e26020830186612e0e565b6140ef6040830185612ded565b6140fc6060830184612c52565b95945050505050565b7f436f756e7465723a2064656372656d656e74206f766572666c6f770000000000600082015250565b600061413b601b83612c87565b915061414682614105565b602082019050919050565b6000602082019050818103600083015261416a8161412e565b9050919050565b7f4552433732313a20617070726f766520746f2063616c6c657200000000000000600082015250565b60006141a7601983612c87565b91506141b282614171565b602082019050919050565b600060208201905081810360008301526141d68161419a565b9050919050565b7f4552433732313a207472616e7366657220746f206e6f6e20455243373231526560008201527f63656976657220696d706c656d656e7465720000000000000000000000000000602082015250565b6000614239603283612c87565b9150614244826141dd565b604082019050919050565b600060208201905081810360008301526142688161422c565b9050919050565b600081519050919050565b600082825260208201905092915050565b60006142968261426f565b6142a0818561427a565b93506142b0818560208601612c98565b6142b981612cc2565b840191505092915050565b60006080820190506142d96000830187612dc3565b6142e66020830186612dc3565b6142f36040830185612ded565b8181036060830152614305818461428b565b905095945050505050565b60008151905061431f81612bed565b92915050565b60006020828403121561433b5761433a612bb7565b5b600061434984828501614310565b91505092915050565b7f4e487b7100000000000000000000000000000000000000000000000000000000600052601260045260246000fdfea26469706673582212209e4b27dbc61e93f1b223c8f6ca8fd26ebfce5357d5fc6ccbcd20e84cfc4dd2a564736f6c63430008110033",
  "linkReferences": {},
  "deployedLinkReferences": {}
}